:060000000A128A110C280F
:10000800FE00030EF2000A08F3000A128A116028A3
:100018000A128A110F280A128A116F200A128A11ED
:10002800F0000A128A1170200A128A11F100830165
:100038000A128A114F28831603178801890183162B
:100048000313880186018501831203138801860141
:100058008501831603130F088F3940388F000F145A
:1000680018121815831603178715193083160313EA
:1000780099009A01831203139817181318168316F8
:1000880003139816831203138C12831603138C160A
:100098008B170B1708000A128A111F200A128A11DF
:1000A800831203130C1E59285A2854284A309900E1
:1000B80054280A128A110C28831203138C1E6528EF
:1000C800662868281A08860073088A00720E83005A
:0A00D800FE0E7E0E09004A340034CB
:04400E00D420FF3F7C
:00000001FF
